S01300005175657374696F6E5F31312E73726563F8
S11300000C9434000C943E000C943E000C943E007E
S11300100C943E000C943E000C943E000C943E0064
S11300200C943E000C943E000C943E000C943E0054
S11300300C943E000C943E000C943E000C943E0044
S11300400C943E000C943E000C943E000C943E0034
S11300500C943E000C943E000C943E000C943E0024
S11300600C943E000C943E0011241FBECFEFD8E048
S1130070DEBFCDBF0E94C7000C945A010C9400004F
S113008080E480937C0086E880937A000895ECE70E
S1130090F0E09081987F892B8083EAE7F0E080810B
S11300A08064808380917A0086FDFCCF8091780003
S11300B090917900089584B1826084B982E8809334
S11300C0800082E18093810080E49CE99093870022
S11300D08093860008959C01A8E0B7E00E94F9008F
S11300E02FEF33E040E050E00E94D700285A3D4F04
S11300F0220F331F309389002093880008958F9234
S11301009F92AF92BF92CF92DF92EF92FF920F93A2
S1130110CF93DF93B82EC0E0D0E0C12CD12C760170
S11301200EC08B2D0E944700C80ED91EE11CF11C85
S11301308FE39FE10197F1F700C000002196C530DD
S1130140D1057CF3C701B6012DEC3CEC4CEC5CEC26
S11301500E94080100E20E943501822E932EA42EF3
S1130160B52ED501C401B695A79597958795B695F3
S1130170A79597958795DF91CF910F91FF90EF9079
S1130180DF90CF90BF90AF909F908F9008950E9482
S113019040000E945B0080E00E947F000E946B0090
S11301A08FE59AEE0197F1F700C00000F4CFA1E2C9
S11301B01A2EAA1BBB1BFD010DC0AA1FBB1FEE1FDD
S11301C0FF1FA217B307E407F50720F0A21BB30B28
S11301D0E40BF50B661F771F881F991F1A9469F7A4
S11301E060957095809590959B01AC01BD01CF0100
S11301F00895A29FB001B39FC001A39F700D811DFC
S11302001124911DB29F700D811D1124911D08951B
S1130210E894DF93CF93FC01DB010E94F9007F9304
S11302206F93E9019A01AC01BF93AF933F932F936E
S1130230DF010E94F90026F46C1B7D0B820B930BEB
S11302409E01EB01FC010E945101AF91BF912F91DE
S11302503F910E945101BE01CF01F9012F913F91BD
S1130260CF91DF91089597FB10F8169400080F932F
S1130270083098F00850232F342F452F562F672F1E
S1130280782F892F902DF4CF05949795879577959E
S1130290679557954795379527950A95AAF70F912E
S11302A008950E94F900460F571FC81FD91F08F46C
S10B02B031960895F894FFCF84
S9030000FC
