:100000000C94B1000C94CE000C94CE000C94CE0055
:100010000C94CE000C94CE000C94CE000C94CE0028
:100020000C94CE000C94CE000C94CE000C94CE0018
:100030000C94CE000C94CE000C94CE000C94CE0008
:100040000C94CE000C94CE000C94CE000C94CE00F8
:100050000C94CE000C94CE000C94CE000C94CE00E8
:100060000C94CE000C94CE0000407A10F35A00A0FD
:10007000724E18090010A5D4E80000E87648170071
:1000800000E40B54020000CA9A3B000000E1F505B1
:10009000000080969800000040420F000000A086FB
:1000A00001000000102700000000E803000000002D
:1000B0006400000000000A000000000001000000D1
:1000C00000002C76D888DC674F0823DFC1DFAE59EB
:1000D000E1B1B796E5E3E453C63AE651997696E87E
:1000E000E6C28426EB898C9B62ED407C6FFCEFBC02
:1000F0009C9F40F2BAA56FA5F490055A2AF75C932D
:100100006B6CF9676DC11BFCE0E40D47FEF520E662
:10011000B500D0ED902E0300943577050080841E45
:10012000080000204E0A000000C80C333333330FA0
:10013000986E12831141EF8D2114893BE65516CF3D
:10014000FEE6DB18D1844B381BF77C1D901DA4BB49
:10015000E424203284725E228100C9F124ECA1E5FE
:100160003D2711241FBECFEFD8E0DEBFCDBF11E089
:10017000A0E0B1E0E6ECF6E102C005900D92AC30F3
:10018000B107D9F721E0ACE0B1E001C01D92A8327F
:10019000B207E1F70E94B1050C94610B0C940000CA
:1001A0000F931F93CF93DF93182F0E94EB048CEED5
:1001B0000E94F704812F0E94F7040E94EB048DEE49
:1001C0000E94F7040E940105182F0E940B05082FBA
:1001D0000E94F304D02F80E0C82FCE01812BDF9145
:1001E000CF911F910F910895CF93DF93D82FC62FF2
:1001F0000E94EB048CEE0E94F7048D2F0E94F704FE
:100200008C2F0E94F7040E94F304DF91CF91089590
:10021000CF93C82F0E94EB048CEE0E94F7048C2F22
:100220000E94F7040E94EB048DEE0E94F7040E94E6
:100230000B05C82F0E94F3048C2FCF91089566EB15
:1002400080EE0E94F4002FEF81EE94E02150804078
:100250009040E1F700C0000088E80E94D000909331
:100260002701809326018AE80E94D00090932501FF
:10027000809324018CE80E94D00090932301809306
:1002800022018EE80E94D0009093210180932001EA
:1002900080E90E94D00090931F0180931E0182E9A3
:1002A0000E94D00090931D0180931C0184E90E945C
:1002B000D00090931B0180931A0186E90E94D00020
:1002C000909319018093180188E90E94D0009093BF
:1002D0001701809316018AE90E94D00090931501BE
:1002E000809314018CE90E94D000909313018093B5
:1002F00012018EE90E94D0009093110180931001A9
:1003000067E284EF0E94F40060E085EF0E94F40051
:1003100008954F925F926F927F928F929F92AF92C9
:10032000BF92CF92DF92EF92FF928AEF0E94080174
:10033000C82ED12CE12CF12C0B2EBCE0CC0CDD1CFA
:10034000EE1CFF1CBA95D1F7B02D8BEF0E9408016F
:1003500090E0A0E0B0E0880F991FAA1FBB1F880F94
:10036000991FAA1FBB1F880F991FAA1FBB1F880FA9
:10037000991FAA1FBB1FC82AD92AEA2AFB2A8CEF79
:100380000E94080182958F70C82AB701A60168945F
:1003900012F875956795579547951694D1F7409043
:1003A000260150902701612C712CD301C201880FC6
:1003B000991FAA1FBB1F9A01AB01281B390B4A0BBF
:1003C0005B0BA0912401B09125010E9473074B01A2
:1003D0005C01072E7BE0B594A794979487947A9557
:1003E000D1F7702DD701C601689413F8B595A7957C
:1003F000979587951694D1F7BC01CD0164197509BD
:10040000860997099B01AC010E9458079B01AC012A
:10041000012E1CE055954795379527951A95D1F7EC
:10042000102DA0912201B09123010E947307DC01DD
:10043000CB01072E7EE0B595A795979587957A9580
:10044000D1F7702D880D991DAA1DBB1D80930C013D
:1004500090930D01A0930E01B0930F016C017D01EB
:10046000CC0CDD1CEE1CFF1CCC0CDD1CEE1CFF1CA0
:100470008C0D9D1DAE1DBF1D80589F4FAF4FBF4FB0
:10048000692F7A2F8B2F992787FD9A950E947E06D8
:1004900020E030E048EC52E40E940406FF90EF9028
:1004A000DF90CF90BF90AF909F908F907F906F9094
:1004B0005F904F9008952F923F924F925F926F926C
:1004C0007F928F929F92AF92BF92CF92DF92EF92E4
:1004D000FF920F931F93CF93DF93CDB7DEB766974D
:1004E0000FB6F894DEBF0FBECDBF87EF0E940801A4
:1004F000C82ED12CE12CF12C0B2EBCE0CC0CDD1C39
:10050000EE1CFF1CBA95D1F7B02D88EF0E940801B0
:1005100090E0A0E0B0E0880F991FAA1FBB1F880FD2
:10052000991FAA1FBB1F880F991FAA1FBB1F880FE7
:10053000991FAA1FBB1FC82AD92AEA2AFB2A89EFBA
:100540000E94080182958F70A7019601282B2F87A2
:10055000388B498B5A8B80910C0190910D01A091A1
:100560000E01B0910F016C017D01FF0CCC08DC2C59
:100570007601282F392F4A2F5B2F6C2D7C2D8C2D47
:100580009C2D345F4140510961097109810991092C
:1005900029833A83442E552E662E772E282E392E07
:1005A000A22EB32EC42ED52EE62EF72E082F192FED
:1005B0000E947B072B833C834D835E836F83788708
:1005C00089879A87B0901701A09016011B2D110FF3
:1005D000110BC12ED12EE12EF12E012F0E947B078F
:1005E0002B873C874D875E87862E972E8C8B9B8B27
:1005F000B0901901A09018011B2D110F110BC12EE5
:10060000D12EE12EF12E012F29813A81442D552D35
:10061000662D772D822D932D0E947B0701E10E948C
:10062000AB08A22EB32EC42ED52EE62EF72E082F01
:10063000192F2B853C854D855E85682D792D8C89FC
:100640009B890E94E208822E932E4C875B87B62FEF
:10065000A72FF82FE92F30911B0120911A01932F1A
:10066000990F990B492F592F692F792F892F03E261
:100670000E94AB08A22EB32EC42ED52EE62EF72E46
:10068000082F192F282D392D4C855B856B2F7A2F3C
:100690008F2F9E2F0E94E2082B873C874D875E8715
:1006A0006B8B7C8B8D8B9E8BB0901D01A0901C0161
:1006B0001B2D110F110BC12ED12EE12EF12E012F6A
:1006C0002B813C814D815E816F81788589859A85FA
:1006D0000E947B0708E00E94C4082B833C834D8363
:1006E0005E83862E972E88879F83B0901F01A090EF
:1006F0001E011B2D110F110BC12ED12EE12EF12E3B
:10070000012F29813A81442D552D662D772D822D7B
:10071000932D0E947B070CE00E94AB08A22EB32E03
:10072000C42ED52EE62EF72E082F192F2B813C81B3
:100730004D815E81682D792D88859F810E94E20818
:1007400070588F4F9F4FE0912001F09121011F01C0
:10075000AE2EB32CC12CD12CE12CF12C00E010E0FA
:100760000E947B0701E20E94C408422E532E642E91
:10077000752E862E972E8A839983A0E00E94F40816
:1007800009F404C180E090E0A0E1B0E02F85388951
:1007900049895A89821B930BA40BB50B6C017D010F
:1007A000FF0CCC08DC2C7601282F392F4A2F5B2F29
:1007B0006C2D7C2D8C2D9C2D0FE10E94AB08AB8401
:1007C000BC84CD84DE84EB88FC880D891E890E9460
:1007D000EB080F2EF5E3AF2EF02D0F2EFCE0BF2E11
:1007E000F02DC12CD12CE12CF12C00E010E00E9466
:1007F0007B07A42CB52CC62CD72CE82CF92C0A810D
:1008000019810E94D6072C873B8749835A836B83C3
:100810007C838D839E83F0911101A0911001EF2FB5
:10082000EE0FEE0B0DE00E94C408222E332E442E54
:10083000552E662E772E882E992EA22EB32EC42EDC
:10084000D52EE62EF72E082F192F2A2F3F2F4E2FA9
:100850005E2F6E2F7E2F8E2F9E2F0E947B07A22E43
:10086000B32EC42ED52EE62EF72E082F192F222DAB
:10087000332D442D552D662D772D882D992D0E94D1
:100880007B0709E10E94C408522E432E342E252EE8
:100890006F83788789879A87B0901301A09012019F
:1008A0001B2D110F110BC12ED12EE12EF12E012F78
:1008B0002C853B8549815A816B817C818D819E810C
:1008C0000E947B0703E10E94C408622E732E842ECF
:1008D000952EB62FA72FF82FE92F2C853B85498120
:1008E0005A816B817C818D819E81A52CB42CC32C77
:1008F000D22CEF80F88409851A850E94E208A22E86
:10090000B32EC42ED52EE62EF72E082F192F262D06
:10091000372D482D592D6B2F7A2F8F2F9E2F0E9408
:10092000E20808E00E94C408822E932E4A8359836D
:10093000B62FA72FF82FE92F309115012091140120
:10094000932F990F990B492F592F692F792F892FA1
:1009500004E00E94AB08A22EB32EC42ED52EE62EA4
:10096000F72E082F192F282D392D4A8159816B2FE9
:100970007A2F8F2F9E2F0E94E2080E94760620E099
:1009800030E048EC56E40E94040603C060E070E0EA
:10099000CB0166960FB6F894DEBF0FBECDBFDF91D8
:1009A000CF911F910F91FF90EF90DF90CF90BF906C
:1009B000AF909F908F907F906F905F904F903F90FF
:1009C0002F9008951092B90088E48093B80084E0D5
:1009D0008093BC00089584EA8093BC008091BC00A1
:1009E0008823E4F7089584E98093BC0008958093F8
:1009F000BB0084E88093BC008091BC008823E4F7AE
:100A0000089584EC8093BC008091BC008823E4F7B7
:100A10008091BB00089584E88093BC008091BC0065
:100A20008823E4F78091BB000895CF93C82F84609A
:100A30000E94F70485E08A95F1F700008C2F8B7FE8
:100A40000E94F70487EC90E00197F1F700C00000E6
:100A5000CF910895CF93DF93D82FD07FD62BD86036
:100A600020E1829FC0011124862BC82FC8600E94FC
:100A7000EB048EE40E94F7048D2F0E94F7048D2F63
:100A80000E9415058C2F0E94F7048C2F0E941505DB
:100A90000E94F304DF91CF91089560E00E942A053F
:100AA0008FE39FE10197F1F700C0000008952FEF59
:100AB00080E792E0215080409040E1F700C00000C4
:100AC00060E080E30E942A058FE19EE40197F1F740
:100AD00000C0000060E080E30E942A058FE19EE4F0
:100AE0000197F1F700C0000060E080E30E942A0552
:100AF0008FE19EE40197F1F700C0000060E080E222
:100B00000E942A0588E20E944D058CE00E944D0556
:100B100086E00E944D0581E00E944D058FE19EE434
:100B20000197F1F700C00000089581E00E944D0593
:100B30000895811103C080E8860F02C080EC860F03
:100B40000E944D050895CF93DF93EC0104C02196D8
:100B500061E00E942A0588818111F9CFDF91CF9150
:100B60000895CF93DF93CDB7DEB764970FB6F894AF
:100B7000DEBF0FBECDBF0E94E2040E9457050E9457
:100B80001F010E9495050E9489014B015C010E9492
:100B90005B026B017C010E94950560E080E00E9491
:100BA000990580E091E00E94A3058E010F5F1F4F21
:100BB00022E046E0C501B4010E940F09C8010E946D
:100BC000A30583E091E00E94A30560E081E00E941C
:100BD000990585E091E00E94A30522E047E0C70166
:100BE000B6010E940F09C8010E94A30588E091E0A8
:100BF0000E94A3052FEF87EA91E6215080409040A4
:100C0000E1F700C00000BFCF0E9418060C941E0739
:100C10000E94170758F00E94100740F029F45F3F28
:100C200029F00C94F70651110C9452070C94FD0610
:100C30000E942F0768F39923B1F3552391F3951B75
:100C4000550BBB27AA2762177307840738F09F5FED
:100C50005F4F220F331F441FAA1FA9F335D00E2E5A
:100C60003AF0E0E832D091505040E695001CCAF7C7
:100C70002BD0FE2F29D0660F771F881FBB1F26178A
:100C800037074807AB07B0E809F0BB0B802DBF0161
:100C9000FF2793585F4F3AF09E3F510578F00C9430
:100CA000F7060C9452075F3FE4F3983ED4F3869521
:100CB00077956795B795F7959F5FC9F7880F911D51
:100CC0009695879597F90895E1E0660F771F881F3D
:100CD000BB1F621773078407BA0720F0621B730BF0
:100CE000840BBA0BEE1F88F7E095089597FB16F476
:100CF0000E9400070C94BA06E89409C097FB3EF4E2
:100D000090958095709561957F4F8F4F9F4F992358
:100D1000A9F0F92F96E9BB279395F69587957795D6
:100D20006795B795F111F8CFFAF4BB0F11F460FF96
:100D30001BC06F5F7F4F8F4F9F4F16C0882311F0EE
:100D400096E911C0772321F09EE8872F762F05C002
:100D5000662371F096E8862F70E060E02AF09A959D
:100D6000660F771F881FDAF7880F9695879597F992
:100D70000895E894F92F96EBFF2381F012161306DD
:100D80001406440B9395F695879577956795579537
:100D90004040FF23B9F71BC099270895882351F4D9
:100DA0009850D2F7872B762F652F542F432F322F51
:100DB00020E0B1F3121613061406440B88233AF010
:100DC0009A95440F551F661F771F881FCAF7552332
:100DD0004AF4440F551F11F460FF04C06F5F7F4F4A
:100DE0008F4F9F4F880F9695879597F9089597F99C
:100DF0009F6780E870E060E008959FEF80EC0895C1
:100E00009095809570956095509540953095219579
:100E10003F4F4F4F5F4F6F4F7F4F8F4F9F4F089503
:100E200000240A94161617061806090608950024C9
:100E30000A9412161306140605060895092E039443
:100E4000000C11F4882352F0BB0F40F4BF2B11F4B7
:100E500060FF04C06F5F7F4F8F4F9F4F089557FD16
:100E60009058440F551F59F05F3F71F04795880F18
:100E700097FB991F61F09F3F79F0879508951216AF
:100E800013061406551FF2CF4695F1DF08C016165B
:100E900017061806991FF1CF86957105610508940C
:100EA0000895E894BB2766277727CB0197F9089523
:100EB000DB018F939F930E946807BF91AF91A29F20
:100EC000800D911DA39F900DB29F900D1124089548
:100ED0000E940009A59F900DB49F900DA49F800DC6
:100EE000911D11240895B7FF0C9468070E946807AC
:100EF000821B930B0895DF93CF931F930F939A9DBB
:100F0000F02D219FF00D8B9DF00D8A9DE02DF10DB0
:100F1000039FF00D029FE00DF11D4E9DE00DF11DB0
:100F20005E9DF00D4F9DF00D7F936F93BF92AF923A
:100F30005F934F93D5010E9400098B01AC01D7014B
:100F40000E940009EB01E80FF91FD6010E94CB07B0
:100F50002F913F91D6010E940009C60FD71FE81FAD
:100F6000F91FAF91BF910E94CB072F913F910E9433
:100F70000009C60FD71FE81FF91FD6010E940009FC
:100F8000E60FF71F9801BE01CF0111240F911F91A9
:100F9000CF91DF9108950E940009460F571FC81F87
:100FA000D91F08F431960895689401C0E894F92F88
:100FB000F12B12F00C940808A0E0B0E0E2EEF7E0AC
:100FC0000C947A08092E059422F40E9464081123D7
:100FD00092F4F0E80F26FFEFE094F094009510955E
:100FE000B094C094D094A194BF0ACF0ADF0AEF0A4C
:100FF000FF0A0F0B1F0B0E94130807FC0E946408D6
:10100000CDB7DEB7ECE00C949608689401C0E89484
:101010008F929F92CF93DF930E941308DF91CF911D
:101020009F908F90089588249924F401E401B0E4FE
:101030009F93AA279A158B049C04ED05FE05CF0506
:10104000D007A10798F4AD2FDC2FCF2FFE2FE92D6D
:10105000982C892E982F872F762F652F542F432F6A
:10106000322F2227B85031F7BF9127C01B2EBF91D6
:10107000BB27220F331F441F551F661F771F881F72
:10108000991F881C991CEE1FFF1FCC1FDD1FAA1F74
:10109000BB1F8A149B04EC05FD05CE05DF05A007E8
:1010A000B10748F08A189B08EC09FD09CE09DF0951
:1010B000A00BB10B21601A94E1F62EF49401AF015C
:1010C000BE01CD01000C08956095709580959095B6
:1010D00030954095509521953F4F4F4F5F4F6F4F43
:1010E0007F4F8F4F9F4F08952F923F924F925F9265
:1010F0006F927F928F929F92AF92BF92CF92DF9228
:10110000EF92FF920F931F93CF93DF93CDB7DEB78C
:10111000CA1BDB0B0FB6F894DEBF0FBECDBF099420
:101120002A88398848885F846E847D848C849B8477
:10113000AA84B984C884DF80EE80FD800C811B8185
:10114000AA81B981CE0FD11D0FB6F894DEBF0FBEB4
:10115000CDBFED0108950F93083090F0982F872FA1
:10116000762F652F542F432F322F22270850F4CF8C
:10117000220F331F441F551F661F771F881F991F9B
:101180000A95B2F70F91089597FB10F8169400088E
:101190000F93083098F00850232F342F452F562FE7
:1011A000672F782F892F902DF4CF059497958795E9
:1011B0007795679557954795379527950A95AAF797
:1011C0000F9108952A0D3B1D4C1D5D1D6E1D7F1D49
:1011D000801F911F08952A193B094C095D096E096A
:1011E0007F09800B910B08950024A7FD00942A1716
:1011F000300540055005600570058005900508958F
:10120000A29FB001B39FC001A39F700D811D112447
:10121000911DB29F700D811D1124911D0895EF92B3
:101220000F931F93CF93DF93E80147FD02C034E093
:1012300001C034E1042E000C550B57FF03C051953B
:1012400041955109E32E022F242FAE010E942F0950
:10125000CE01DF91CF911F910F91EF900895A9E0FA
:10126000B0E0E5E3F9E00C947A086A01122FB02EA1
:101270002BE3201720F0FF24F394F00E02C02CE3A0
:10128000F22E0F2D27E0AE014F5F5F4F0E94890ABB
:10129000BC014981842F8970813031F0E1FC06C0A6
:1012A000E0FE06C090E205C09DE203C09BE201C0E3
:1012B00090E05E2D507143FF3CC0911102C083E06D
:1012C00001C084E0811718F4212F281B01C020E001
:1012D00051110BC0F601822F30E2882319F03193AF
:1012E0008150FBCFC20ED11C20E0992329F0D601FA
:1012F0009C93F60131966F01C6010396E2FE0AC087
:101300003EE4D6013C9341E411964C93119712961A
:101310003C9306C03EE6F601308341E641833283CA
:10132000FC01322F40E2332309F442C04193315093
:10133000FACF42FF44C0911102C083E001C084E0B3
:10134000811718F4212F281B01C020E051110BC078
:10135000F601822F30E2882319F031938150FBCFC0
:10136000C20ED11C20E0992329F0D6019C93F601EE
:1013700031966F01C6010396E2FE0BC039E4D60137
:101380003C933EE411963C93119736E412963C93BD
:1013900007C039E6F60130833EE6318336E6328314
:1013A000FC01322F40E2332319F041933150FBCF3F
:1013B000FC01E20FF11D10828EEF9FEFA6C021E02D
:1013C00030E0911102C020E030E0161617061CF440
:1013D000FB01319602C0E1E0F0E02E0F3F1FBB2081
:1013E00021F0EB2DF0E0319602C0E0E0F0E02E0FAE
:1013F0003F1FE12FF0E02E173F071CF4121B212F97
:1014000001C020E08E2D887159F4F601822F30E260
:10141000882319F031938150FBCFC20ED11C20E0FC
:10142000992329F0D6019C93F60131966F01511151
:101430000BC0F601822F90E3882319F0919381501D
:10144000FBCFC20ED11C20E00F2D060F9A81342F46
:10145000307144FF03C0913309F40150101624F495
:10146000093018F008E001C001E0AB0177FF02C0CD
:1014700040E050E0FB01E41BF50BA1E0B0E0AC0F55
:10148000BD1FEA0FFB1F8EE2A82E4B01801A9108A8
:101490000B2D10E01195019511094F3FBFEF5B0730
:1014A00021F4D601AC9211966D01641775072CF0EA
:1014B0008416950614F4818101C080E341505109DE
:1014C0003196D60111967D014017510724F0D601BF
:1014D0008C936701E2CF6417750739F4963320F4D3
:1014E000953319F4311101C081E3F6018083F701CE
:1014F000822F90E2882319F091938150FBCFF7015E
:10150000E20FF11D108280E090E02996ECE00C944F
:101510009608283008F027E03327DA01990F311DAB
:1015200087FD916000966105710539F432602E5F88
:101530003D9330E32A95E1F708959F3F30F08038DE
:101540007105610509F03C5F3C5F3D93913008F007
:101550008068911DDF93CF931F930F93FF92EF92BB
:10156000192F987F9695E92F96959695E90FFF2765
:10157000EE53FF4F99273327EE24FF24A701E701FD
:1015800005900894079428F4360FE71EF81E491FAB
:10159000511D660F771F881F991F0694A1F70590AC
:1015A000079428F4E70EF81E491F561FC11D770F38
:1015B000881F991F661F0694A1F70590079428F4C9
:1015C000F80E491F561FC71FD11D880F991F661F90
:1015D000771F0694A1F70590079420F4490F561F32
:1015E000C71FD81F990F661F771F881F0694A9F77A
:1015F00084911095177041F0D695C79557954795EA
:10160000F794E7941A95C1F7E8E6F0E0689415902E
:10161000159135916591959105907FE27395E1184B
:10162000F10A430B560BC90BD009C0F7E10CF11EB0
:10163000431F561FC91FD01D7EF4703311F48A95C5
:10164000E6CFE894015030F0080F0AF400270217A3
:1016500008F4202F2395022F7A3328F079E37D9325
:101660002A95E9F710C07D932A9589F606949795F7
:101670006795379517951794E118F10A430B560BA8
:10168000C90BD00998F023957E9173957A3308F0B1
:1016900070E37C932013B8F77E9170617D9330F0F6
:1016A000839571E37D9370E32A95E1F71124EF9020
:1016B000FF900F911F91CF91DF91992787FD909512
:0616C0000895F894FFCF2D
:0C16C600543A004300503A0068506100A4
:00000001FF
