S01B000070726F6A6563745F656E7669726F6E6D656E742E73726563FE
S11300000C9434000C9449000C9449000C9449005D
S11300100C9449000C9449000C9449000C94490038
S11300200C9449000C9449000C9449000C94490028
S11300300C9449000C9449000C9449000C94490018
S11300400C9449000C9449000C9449000C94490008
S11300500C9449000C9449000C9449000C944900F8
S11300600C9449000C94490011241FBECFEFD8E032
S1130070DEBFCDBF11E0A0E0B1E0E8ECF7E002C0E4
S113008005900D92A431B107D9F70E944B000C944E
S1130090E2030C9400000E94540184B18C6284B980
S11300A084B18F7E84B985B1846085B98AB1886052
S11300B08AB981E58CBD2FEF81EE94E02150804018
S11300C09040E1F700C0000085B18B7F85B925E041
S11300D02A95F1F7000088E88EBD0DB407FEFDCF28
S11300E08EB51EBC0DB407FEFDCF9EB51EBC0DB46F
S11300F007FEFDCF6EB585E08A95F1F7000085B166
S1130100846085B970E0762F6627692B85B18B7F73
S113011085B98AE88EBD0DB407FEFDCF8EB51EBC31
S11301200DB407FEFDCF2EB51EBC0DB407FEFDCFEA
S11301308EB595E09A95F1F7000095B1946095B964
S113014090E0982F88276C01C22A85B18B7F85B9EE
S11301508CE88EBD0DB407FEFDCF8EB51EBC0DB46C
S113016007FEFDCF2EB51EBC0DB407FEFDCF8EB528
S113017095E09A95F1F7000095B1946095B990E0F7
S1130180982F88277C01E22A80E090E00E94A60252
S11301904B015C0120E030E040E85AE30E94340364
S11301A09B01AC0160E070E28BE490E40E94910159
S11301B02B013C01B60180E090E00E94A6029B0165
S11301C0AC01C301B2010E9434032B013C0120E0C5
S11301D030E040E059E3C501B4010E9434039B01BF
S11301E0AC0160E070E28BEC9EE30E9491019B0104
S11301F0AC010E9434034B015C01B701FF0C880B76
S1130200990B0E94A8029B01AC01C501B4010E9494
S113021034039B01AC01C301B2010E9492010E940C
S113022070026B017C010E94A80220E030E040EAE9
S113023055E40E94FE014B015C0180E091E00E94C4
S113024067018AE00E946001C701B6010E9474013F
S11302502FEF83ED90E3215080409040E1F700C000
S113026000008AE00E9460012FEF83ED90E32150AB
S113027080409040E1F700C0000087E091E00E94D8
S113028067018AE00E946001C501B4010E947702FF
S11302900E9474012FEF83ED90E321508040904041
S11302A0E1F700C00000C9CF1092C50087E6809333
S11302B0C40088E08093C10086E08093C200089562
S11302C09091C00095FFFCCF8093C6000895CF9312
S11302D0DF93EC0103C021960E94600188818111A3
S11302E0FACFDF91CF910895CF93DF93CDB7DEB7E7
S11302F02C970FB6F894DEBF0FBECDBF2AE0AE0137
S11303004F5F5F4F0E94A103CE0101960E946701D7
S11303102C960FB6F894DEBF0FBECDBFDF91CF9100
S113032008955058BB27AA270E94A9010C94FA02E9
S11303300E94EC0238F00E94F30220F039F49F3F4F
S113034019F426F40C94E9020EF4E095E7FB0C94FE
S1130350E302E92F0E940B0358F3BA1762077307ED
S11303608407950720F079F4A6F50C942D030EF478
S1130370E0950B2EBA2FA02D0B01B90190010C01B1
S1130380CA01A0011124FF27591B99F0593F50F4C9
S1130390503E68F11A16F040A22F232F342F442721
S11303A0585FF3CF469537952795A795F040539519
S11303B0C9F77EF41F16BA0B620B730B840BBAF0E9
S11303C09150A1F0FF0FBB1F661F771F881FC2F754
S11303D00EC0BA0F621F731F841F48F48795779568
S11303E06795B795F7959E3F08F0B0CF9395880F22
S11303F008F09927EE0F9795879508950E941202A9
S11304000C94FA020E94F30258F00E94EC0240F0AD
S113041029F45F3F29F00C94E30251110C942E034C
S11304200C94E9020E940B0368F39923B1F355235A
S113043091F3951B550BBB27AA27621773078407F3
S113044038F09F5F5F4F220F331F441FAA1FA9F389
S113045035D00E2E3AF0E0E832D091505040E69577
S1130460001CCAF72BD0FE2F29D0660F771F881FD8
S1130470BB1F261737074807AB07B0E809F0BB0BCB
S1130480802DBF01FF2793585F4F3AF09E3F5105DF
S113049078F00C94E3020C942E035F3FE4F3983E4F
S11304A0D4F3869577956795B795F7959F5FC9F7C8
S11304B0880F911D9695879597F90895E1E0660F49
S11304C0771F881FBB1F621773078407BA0720F0C2
S11304D0621B730B840BBA0BEE1F88F7E09508952B
S11304E00E9477026894B1110C942E0308950E941F
S11304F0130388F09F5798F0B92F9927B751B0F09C
S1130500E1F0660F771F881F991F1AF0BA95C9F793
S113051014C0B13091F00E942D03B1E008950C9401
S11305202D03672F782F8827B85F39F0B93FCCF3B4
S1130530869577956795B395D9F73EF49095809510
S1130540709561957F4F8F4F9F4F0895E89409C030
S113055097FB3EF490958095709561957F4F8F4FF2
S11305609F4F9923A9F0F92F96E9BB279395F69508
S1130570879577956795B795F111F8CFFAF4BB0F86
S113058011F460FF1BC06F5F7F4F8F4F9F4F16C0EA
S1130590882311F096E911C0772321F09EE8872F74
S11305A0762F05C0662371F096E8862F70E060E030
S11305B02AF09A95660F771F881FDAF7880F9695A9
S11305C0879597F9089597F99F6780E870E060E050
S11305D008959FEF80EC089500240A9416161706D8
S11305E018060906089500240A9412161306140620
S11305F005060895092E0394000C11F4882352F083
S1130600BB0F40F4BF2B11F460FF04C06F5F7F4F3A
S11306108F4F9F4F089557FD9058440F551F59F021
S11306205F3F71F04795880F97FB991F61F09F3FDB
S113063079F087950895121613061406551FF2CF04
S11306404695F1DF08C0161617061806991FF1CF54
S113065086957105610508940895E894BB2766277B
S11306607727CB0197F908950E9447030C94FA0267
S11306700E94EC0238F00E94F30220F0952311F05E
S11306800C94E3020C94E90211240C942E030E94AE
S11306900B0370F3959FC1F3950F50E0551F629FB4
S11306A0F001729FBB27F00DB11D639FAA27F00DC7
S11306B0B11DAA1F649F6627B00DA11D661F829FEE
S11306C02227B00DA11D621F739FB00DA11D621FD3
S11306D0839FA00D611D221F749F3327A00D611DF0
S11306E0231F849F600D211D822F762F6A2F1124D2
S11306F09F5750409AF0F1F088234AF0EE0FFF1F05
S1130700BB1F661F771F881F91505040A9F79E3F5B
S1130710510580F00C94E3020C942E035F3FE4F344
S1130720983ED4F3869577956795B795F795E795B1
S11307309F5FC1F7FE2B880F911D9695879597F9BA
S11307400895BB272A3051F4992342F4BDE29095D1
S11307508095709561957F4F8F4F9F4F0C94B10397
S1130760BB27FA01A62F6217710581059105330B8A
S113077030FB66F0AA27660F771F881F991FAA1FF0
S1130780A21710F0A21B63953850A9F7A05DAA33F5
S113079008F0A95DA19336F7B111B1931082CA0193
S11307A00C94D203DC01FC01672F71917723E1F7EC
S11307B0329704C07C916D9370836291AE17BF072A
S10B07C0C8F30895F894FFCF7B
S11307C8745F66696E650074656D706572617475D1
S10707D87265000042
S9030000FC
