:100000000C9434000C9449000C9449000C94490061
:100010000C9449000C9449000C9449000C9449003C
:100020000C9449000C9449000C9449000C9449002C
:100030000C9449000C9449000C9449000C9449001C
:100040000C9449000C9449000C9449000C9449000C
:100050000C9449000C9449000C9449000C944900FC
:100060000C9449000C94490011241FBECFEFD8E036
:10007000DEBFCDBF11E0A0E0B1E0EEE1F7E002C0ED
:1000800005900D92A232B107D9F70E9492010C940B
:100090008D030C94000085B1886085B985E08A9550
:1000A000F1F7000085B1877F85B987EC90E0019773
:1000B000F1F700C0000008959BB1937C9BB983FFCA
:1000C00003C09BB194609BB982FF03C09BB1986051
:1000D0009BB981FF03C09BB190619BB980FF03C0B6
:1000E0008BB180628BB90E944B000895CF93C82FCB
:1000F000613021F485B1806185B903C085B18F7EFF
:1001000085B98C2F82958F700E945C008C2F8F7028
:100110000E945C00CF910895CF93C82F60E00E94A9
:100120007600C150C23030F48FE39FE10197F1F7C0
:1001300000C00000CF91089561E00E94760008950C
:10014000882311F090E401C090E0862F8F70890F12
:1001500080680E948C000895CF93DF93EC0103C068
:1001600021960E949C0088818111FACFDF91CF9166
:10017000089581E00E948C00089584B1806184B963
:1001800084B1886084B98AB18C638AB92FEF89EF12
:1001900090E0215080409040E1F700C0000085B120
:1001A0008F7E85B985B1877F85B983E00E945C0029
:1001B0008FE19EE40197F1F700C0000083E00E9408
:1001C0005C0087E592E00197F1F700C0000083E052
:1001D0000E945C0087E592E00197F1F700C0000003
:1001E00082E00E945C0087E592E00197F1F700C091
:1001F000000088E20E948C0088E00E948C0081E070
:100200000E948C0086E00E948C008CE00E948C0092
:100210000895CF92DF92EF92FF921F93CF93DF93D7
:10022000CDB7DEB72A970FB6F894DEBF0FBECDBFAD
:100230007C018AE0E0E0F1E0DE01119601900D9290
:100240008A95E1F710E020E021C0E12FF0E0EE0F09
:10025000FF1F81E090E08C0F9D1FE80FF91FC08009
:10026000D180C701B6010E947903611104C0211138
:1002700002C0143029F480E3860F0E949C0021E024
:10028000C701B6010E9479037C011F5F1530E8F2B7
:100290002A960FB6F894DEBF0FBECDBFDF91CF9187
:1002A0001F91FF90EF90DF90CF9008958F929F92D3
:1002B000AF92BF92CF92DF92EF92FF924B015C011F
:1002C0000E944F026B017C01CB010E9409018EE26A
:1002D0000E949C00B60180E090E00E947E029B019B
:1002E000AC01C501B4010E94E20120E030E048EC1D
:1002F00052E40E940C030E944F026B017C018AE0D1
:10030000C816D10418F480E30E949C00C6010E9424
:100310000901FF90EF90DF90CF90BF90AF909F903A
:100320008F9008950E94BD0060E080E00E94A000D0
:100330008AE091E00E94AC0060E081E00E94A000B1
:1003400086E191E00E94AC002FEF83ED90E3215015
:1003500080409040E1F700C000000E94B90083EBAC
:1003600094E00E9409012FEF83ED90E3215080403B
:100370009040E1F700C000000E94B9002FEF83ED2C
:1003800090E3215080409040E1F700C0000060E021
:1003900070E087E092E40E9456012FEF83ED90E336
:1003A000215080409040E1F700C000000E94B90059
:1003B0002FEF83ED90E3215080409040E1F700C0A3
:1003C0000000B2CF5058BB27AA270E94FA010C9414
:1003D000D2020E94C40238F00E94CB0220F039F40D
:1003E0009F3F19F426F40C94C1020EF4E095E7FB4C
:1003F0000C94BB02E92F0E94E30258F3BA1762077C
:1004000073078407950720F079F4A6F50C9405038B
:100410000EF4E0950B2EBA2FA02D0B01B90190011F
:100420000C01CA01A0011124FF27591B99F0593F63
:1004300050F4503E68F11A16F040A22F232F342FAB
:100440004427585FF3CF469537952795A795F040F9
:100450005395C9F77EF41F16BA0B620B730B840B0E
:10046000BAF09150A1F0FF0FBB1F661F771F881FC6
:10047000C2F70EC0BA0F621F731F841F48F487951E
:1004800077956795B795F7959E3F08F0B0CF939510
:10049000880F08F09927EE0F9795879508950E9489
:1004A000EB0288F09F5798F0B92F9927B751B0F019
:1004B000E1F0660F771F881F991F1AF0BA95C9F7E8
:1004C00014C0B13091F00E940503B1E008950C947E
:1004D0000503672F782F8827B85F39F0B93FCCF331
:1004E000869577956795B395D9F73EF49095809565
:1004F000709561957F4F8F4F9F4F0895E89409C085
:1005000097FB3EF490958095709561957F4F8F4F46
:100510009F4F9923A9F0F92F96E9BB279395F6955C
:10052000879577956795B795F111F8CFFAF4BB0FDA
:1005300011F460FF1BC06F5F7F4F8F4F9F4F16C03E
:10054000882311F096E911C0772321F09EE8872FC8
:10055000762F05C0662371F096E8862F70E060E084
:100560002AF09A95660F771F881FDAF7880F9695FD
:10057000879597F9089597F99F6780E870E060E0A4
:1005800008959FEF80EC089500240A94161617062C
:1005900018060906089500240A9412161306140674
:1005A00005060895092E0394000C11F4882352F0D7
:1005B000BB0F40F4BF2B11F460FF04C06F5F7F4F8F
:1005C0008F4F9F4F089557FD9058440F551F59F076
:1005D0005F3F71F04795880F97FB991F61F09F3F30
:1005E00079F087950895121613061406551FF2CF59
:1005F0004695F1DF08C0161617061806991FF1CFA9
:1006000086957105610508940895E894BB276627CF
:100610007727CB0197F908950E941F030C94D2020B
:100620000E94C40238F00E94CB0220F0952311F002
:100630000C94BB020C94C10211240C9406030E947A
:10064000E30270F3959FC1F3950F50E0551F629F31
:10065000F001729FBB27F00DB11D639FAA27F00D1B
:10066000B11DAA1F649F6627B00DA11D661F829F42
:100670002227B00DA11D621F739FB00DA11D621F27
:10068000839FA00D611D221F749F3327A00D611D44
:10069000231F849F600D211D822F762F6A2F112426
:1006A0009F5750409AF0F1F088234AF0EE0FFF1F59
:1006B000BB1F661F771F881F91505040A9F79E3FB0
:1006C000510580F00C94BB020C9406035F3FE4F3E9
:1006D000983ED4F3869577956795B795F795E79506
:1006E0009F5FC1F7FE2B880F911D9695879597F90F
:1006F0000895AA1BBB1B51E107C0AA1FBB1FA61769
:10070000B70710F0A61BB70B881F991F5A95A9F7BA
:0E07100080959095BC01CD010895F894FFCF1F
:10071E001027E80364000A00010048656C6C6F2026
:10072E004E4956594100497420776F726B732120E0
:02073E000000B9
:00000001FF
