:100000000C9434000C9446000C9446000C9446006A
:100010000C9446000C9446000C9446000C94460048
:100020000C9446000C9446000C9446000C94460038
:100030000C9446000C9446000C9446000C94460028
:100040000C9446000C9446000C9446000C94460018
:100050000C9446000C9446000C9446000C94460008
:100060000C9446000C94460011241FBECFEFD8E03C
:10007000DEBFCDBF21E0A0E0B1E001C01D92A13004
:10008000B207E1F70E944B000C9474000C9400003E
:100090008F7085B908958FE084B98AB18B7F8AB952
:1000A0008BB184608BB9809100010E9448004A990D
:1000B000FECF2FEF80E792E0215080409040E1F7A3
:1000C00000C000004A99F3CF809100018F5F8093B8
:1000D0000001803110F010920001809100010E9417
:0C00E00048004A9BFECFE3CFF894FFCF0E
:00000001FF
