S022000044435F4D6F746F725F686F6D65776F726B5F46556E6374696F6E2E73726563BB
S11300000C9434000C943E000C943E000C943E007E
S11300100C943E000C943E000C943E000C943E0064
S11300200C943E000C943E000C943E000C943E0054
S11300300C943E000C943E000C943E000C943E0044
S11300400C943E000C943E000C943E000C943E0034
S11300500C943E000C943E000C943E000C943E0024
S11300600C943E000C943E0011241FBECFEFD8E048
S1130070DEBFCDBF0E9455000C947D000C9400009F
S113008085B1806285B985B18F7E85B9089585B1C2
S11300908F7D85B985B18F7E85B9089585B18061DD
S11300A085B985B18F7D85B9089584B1806284B99D
S11300B084B1806184B90E9440002FEF83ED90E306
S11300C0215080409040E1F700C000000E944700AA
S11300D02FEF83E294EF215080409040E1F700C07D
S11300E000000E944E002FEF83ED90E321508040EA
S11100F09040E1F700C00000DECFF894FFCF8F
S9030000FC
