S02B000044435F6D6F746F725F686F6D655F66756E6374696F6E7769746864656C6179417267756D656E742EB4
S11300000C9434000C943E000C943E000C943E007E
S11300100C943E000C943E000C943E000C943E0064
S11300200C943E000C943E000C943E000C943E0054
S11300300C943E000C943E000C943E000C943E0044
S11300400C943E000C943E000C943E000C943E0034
S11300500C943E000C943E000C943E000C943E0024
S11300600C943E000C943E0011241FBECFEFD8E048
S1130070DEBFCDBF0E9469000C947C000C9400008C
S113008007C08FE99FE00197F1F700C00000C901A4
S11300909C0121503109892BA1F7089525B12062D3
S11300A025B925B12F7E25B90E944000089525B1B8
S11300B02F7D25B925B12F7E25B90E9440000895D2
S11300C025B1206125B925B12F7D25B90E944000B5
S11300D0089584B1806284B984B1806184B988EE62
S11300E093E00E944E0088EB9BE00E94570088EE4C
S10F00F093E00E946000F3CFF894FFCF6F
S9030000FC
