S01200005175657374696F6E5F362E7372656325
S11300000C9434000C9448000C9446000C94460064
S11300100C9446000C9446000C9446000C94460044
S11300200C9446000C9446000C9446000C94460034
S11300300C9446000C9446000C9446000C94460024
S11300400C9446000C9446000C9446000C94460014
S11300500C9446000C9446000C9446000C94460004
S11300600C9446000C94460011241FBECFEFD8E038
S1130070DEBFCDBF21E0A0E0B1E001C01D92A13000
S1130080B207E1F70E946F000C94DA000C940000B0
S11300901F920F920FB60F9211248F9381E08093D9
S11300A000018F910F900FBE0F901F90189580E064
S11300B090E007C0EFE9FFE03197F1F700C00000DE
S11300C00196883EF3E09F07ACF3089581E085B97B
S11300D0089582E085B9089584E085B9089584B1CE
S11300E0876084B98AB18B7F8AB98BB184608BB9FC
S11300F0E9E6F0E080818260808380818E7F808366
S11301008DB381608DBB78940E946600C0E0D0E01E
S113011003C00E9457002196CA30D105D4F38091C0
S11301200001882369F00E946600C0E0D0E003C0AB
S11301300E9457002196CA30D105D4F310920001D1
S11301400E946900C0E0D0E003C00E9457002196DD
S1130150C330D105D4F380910001882369F00E9453
S11301606600C0E0D0E003C00E9457002196CA3068
S1130170D105D4F3109200010E946C00C0E0D0E0DD
S113018003C00E9457002196CA30D105D4F3809150
S11301900001882309F4B8CF0E946600C0E0D0E0D3
S11301A003C00E9457002196CA30D105D4F310929F
S10B01B00001AACFF894FFCF6F
S9030000FC
