S01300005175657374696F6E5F31302E73726563F9
S11300000C9434000C947C000C9446000C94460030
S11300100C9446000C9446000C9446000C94460044
S11300200C9446000C9446000C9446000C94460034
S11300300C9446000C9446000C9446000C94460024
S11300400C9446000C9446000C9446000C94460014
S11300500C9446000C9446000C9446000C94460004
S11300600C9446000C94460011241FBECFEFD8E038
S1130070DEBFCDBF21E0A0E0B1E001C01D92A13000
S1130080B207E1F70E94D0000C9412020C94000015
S113009080E480937C0086E880937A000895ECE7FE
S11300A0F0E09081907F8F70892B8083EAE7F0E005
S11300B080818064808380917A0086FDFCCF80916A
S11300C078009091790008958AB180668AB983EAAC
S11300D084BD82E085BD08958AB18B7F8AB98BB1D6
S11300E084608BB9E9E6F0E08081826080838DB31F
S11300F081608DBB789408951F920F920FB60F9272
S113010011248F939F939091000181E0892780931C
S113011000019F918F910F900FBE0F901F90189523
S113012080E00E944F00BC0180E090E00E94F30058
S113013020E030E040EA50E40E94540120E030E046
S113014040E85AE30E94540120E030E048EC52E4D5
S11301500E9454010895CF92DF92EF92FF926B01B7
S11301607C0120E030E040EF51E40E94EE0088235F
S113017064F020E030E040E252E4C701B6010E949E
S1130180EE00882324F486E903C084E601C08FEFDF
S1130190FF90EF90DF90CF90089587BD18BC08952D
S11301A00E9448000E9464000E946C00809100013B
S11301B0882339F00E9490000E94AB000E94CD0079
S11301C003C080E00E94CD002FEF83EC99E0215022
S11301D080409040E1F700C00000E8CF0E94300169
S11301E008F481E00895E89409C097FB3EF49095E3
S11301F08095709561957F4F8F4F9F4F9923A9F0FC
S1130200F92F96E9BB279395F6958795779567958A
S1130210B795F111F8CFFAF4BB0F11F460FF1BC0CE
S11302206F5F7F4F8F4F9F4F16C0882311F096E961
S113023011C0772321F09EE8872F762F05C066230F
S113024071F096E8862F70E060E02AF09A95660FC8
S1130250771F881FDAF7880F9695879597F9089581
S1130260990F0008550FAA0BE0E8FEEF16161706C3
S1130270E807F907C0F012161306E407F50798F02B
S1130280621B730B840B950B39F40A2661F0232B44
S1130290242B252B21F408950A2609F4A140A695C0
S11302A08FEF811D811D08950E9467010C94D80170
S11302B00E94CA0138F00E94D10120F0952311F068
S11302C00C94C1010C94C70111240C940C020E94DB
S11302D0E90170F3959FC1F3950F50E0551F629F9C
S11302E0F001729FBB27F00DB11D639FAA27F00D8B
S11302F0B11DAA1F649F6627B00DA11D661F829FB2
S11303002227B00DA11D621F739FB00DA11D621F96
S1130310839FA00D611D221F749F3327A00D611DB3
S1130320231F849F600D211D822F762F6A2F112495
S11303309F5750409AF0F1F088234AF0EE0FFF1FC8
S1130340BB1F661F771F881F91505040A9F79E3F1F
S1130350510580F00C94C1010C940C025F3FE4F34E
S1130360983ED4F3869577956795B795F795E79575
S11303709F5FC1F7FE2B880F911D9695879597F97E
S1130380089597F99F6780E870E060E008959FEF13
S113039080EC089500240A94161617061806090618
S11303A0089500240A9412161306140605060895E7
S11303B0092E0394000C11F4882352F0BB0F40F46F
S11303C0BF2B11F460FF04C06F5F7F4F8F4F9F4FAF
S11303D0089557FD9058440F551F59F05F3F71F031
S11303E04795880F97FB991F61F09F3F79F0879598
S11303F00895121613061406551FF2CF4695F1DF21
S113040008C0161617061806991FF1CF86957105B0
S1130410610508940895E894BB2766277727CB01E4
S10B042097F90895F894FFCF49
S9030000FC
