:100000000C9434000C943E000C943E000C943E0082
:100010000C943E000C943E000C943E000C943E0068
:100020000C943E000C943E000C943E000C943E0058
:100030000C943E000C943E000C943E000C943E0048
:100040000C943E000C943E000C943E000C943E0038
:100050000C943E000C943E000C943E000C943E0028
:100060000C943E000C943E0011241FBECFEFD8E04C
:10007000DEBFCDBF0E9440000C9469000C940000CC
:100080008AB180648AB984B5836084BD84B5806890
:1000900084BD85B5836085BD80E090E008C087BDE4
:1000A000EFE3FCE93197F1F700C0000001968F3FC4
:1000B0009105A9F3A4F38FEF90E008C087BDEFE3AB
:1000C000FCE93197F1F700C0000001979923B4F7DC
:0600D000E3CFF894FFCF1E
:00000001FF
