S020000074696D657264656C61795F43544D5F5072657363616C61722E7372656395
S11300000C9434000C943E000C943E000C943E007E
S11300100C943E000C943E000C943E000C943E0064
S11300200C943E000C943E000C943E000C943E0054
S11300300C943E000C943E000C943E000C943E0044
S11300400C943E000C943E000C943E000C943E0034
S11300500C943E000C943E000C943E000C943E0024
S11300600C943E000C943E0011241FBECFEFD8E048
S1130070DEBFCDBF0E9440000C9464000C940000CD
S113008084B1806284B984B5826084BD88EC87BD04
S113009016BC85B5816085BD85B5846085BD85B395
S11300A0826085BB95B180E2892785B920E030E084
S11300B007C0A99BFECF85B3826085BB2F5F3F4FEE
S10F00C02C393105B4F3EECFF894FFCFD7
S9030000FC
