S01200005175657374696F6E5F312E737265632A
S11300000C9434000C943E000C943E000C943E007E
S11300100C943E000C943E000C943E000C943E0064
S11300200C943E000C943E000C943E000C943E0054
S11300300C943E000C943E000C943E000C943E0044
S11300400C943E000C943E000C943E000C943E0034
S11300500C943E000C943E000C943E000C943E0024
S11300600C943E000C943E0011241FBECFEFD8E048
S1130070DEBFCDBF0E944E000C9460000C940000C3
S113008007C08FE99FE00197F1F700C00000C901A4
S11300909C0121503109892BA1F708958AB180620E
S11300A08AB98BB180628BB988EB9BE00E944000D7
S11300B08BB18F7D8BB988E893E10E944000F1CF2A
S10700C0F894FFCFDE
S9030000FC
