:100000000C9434000C943E000C943E000C943E0082
:100010000C943E000C943E000C943E000C943E0068
:100020000C943E000C943E000C943E000C943E0058
:100030000C943E000C943E000C943E000C943E0048
:100040000C943E000C943E000C943E000C943E0038
:100050000C943E000C943E000C943E000C943E0028
:100060000C943E000C943E0011241FBECFEFD8E04C
:10007000DEBFCDBF0E944F000C9476000C940000B0
:1000800020E030E007C0A99BFECF85B3826085BB2E
:100090002F5F3F4F2A3688E13807ACF3089584B1CB
:1000A000806284B984B1806184B984B5826084BD82
:1000B00088EC87BD16BC85B5836085BD85B382603D
:1000C00085BB85B1806285B90E94400085B18F7D76
:1000D00085B90E94400085B1806185B90E944000C9
:1000E00085B18F7E85B90E944000EBCFF894FFCF99
:00000001FF
