S01200005175657374696F6E5F382E7372656323
S11300000C9434000C945B000C9446000C94460051
S11300100C9446000C9446000C9446000C94460044
S11300200C9446000C9446000C9446000C94460034
S11300300C9446000C9446000C9446000C94460024
S11300400C9446000C9446000C9446000C94460014
S11300500C9446000C9446000C9446000C94460004
S11300600C9446000C94460011241FBECFEFD8E038
S1130070DEBFCDBF21E0A0E0B1E001C01D92A13000
S1130080B207E1F70E9487000C94A5000C940000CD
S1130090813049F028F0823049F0833051F00895DE
S11300A080E487BD089580E887BD089580EC87BD0E
S11300B0089517BC08951F920F920FB60F92112442
S11300C02F933F934F935F936F937F938F939F935C
S11300D0AF93BF93EF93FF93809100018F5F837081
S11300E080930001809100010E944800FF91EF91EC
S11300F0BF91AF919F918F917F916F915F914F913C
S11301003F912F910F900FBE0F901F9018958AB1B9
S113011080648AB98AB18B7F8AB98BB184608BB9C8
S113012084B5836084BD84B5806884BD85B58360EF
S113013085BD80E487BDE9E6F0E08081826080834C
S11101408DB381608DBB7894FFCFF894FFCF10
S9030000FC
